:020000040800F2
:100000004045002015020008C909000879030008CE
:10001000C5090008D90200089D0F00080000000073
:10002000000000000000000000000000830E000837
:10003000DD02000800000000810E0008150F000816
:100040002B0200082B0200082B0200082B020008DC
:100050002B0200082B0200082B0200082B020008CC
:100060002B0200082B0200082B0200082B020008BC
:100070002B0200082B0200082B0200082B020008AC
:100080002B0200082B0200082B0200082B0200089C
:100090002B0200082B0200082B0200082B0200088C
:1000A0002B0200082B0200082B0200082B0200087C
:1000B0002B0200082B0200082B0200082B0200086C
:1000C0002B0200082B0200082B0200082B0200085C
:1000D0002B020008190F00082B0200082B02000851
:1000E0002B0200082B0200082B0200082B0200083C
:1000F0002B0200082B0200082B0200082B0200082C
:100100002B0200082B0200082B0200082B0200081B
:100110002B0200082B0200082B0200082B0200080B
:100120002B0200082B0200082B0200082B020008FB
:1001300000F002F800F05EF80AA090E8000C82449B
:100140008344AAF10107DA4501D100F053F8AFF278
:10015000090EBAE80F0013F0010F18BFFB1A43F0A5
:1001600001031847DC380000FC38000010F8013BA0
:100170000A4413F0030408BF10F8014B1D1108BF17
:1001800010F8015B641E05D010F8016B641E01F8C5
:10019000016BF9D1002D15D010F8014B03F00C03C1
:1001A0000C2BA1EB04040ABF10F8013BA4EB831451
:1001B000A4EB032405F1010314F8016B5B1E01F8A5
:1001C000016BF9D5914238BF10F8013BD1D370478C
:1001D0000023002400250026103A28BF78C1FBD850
:1001E000520728BF30C148BF0B6070471FB51FBD05
:1001F00010B510BD00F042F81146FFF7F7FF01F00F
:10020000D9FB00F060F803B4FFF7F2FF03BC00F085
:1002100043FF000008480047FEE7FEE7FEE7FEE771
:10022000FEE7FEE7FEE7FEE7FEE7FEE703480449D8
:10023000044A054B7047000031010008403F002090
:100240004045002040410020404100207047704759
:1002500070477047704710B500F008F8006810BD8F
:1002600010B5044600F002F8046010BD0048704765
:10027000DC3E002000487047DC3E00207546FFF75A
:10028000F9FFAE4605006946534620F00700854653
:1002900018B020B5FFF7CAFFBDE820404FF00006B8
:1002A0004FF000074FF000084FF0000B21F007015E
:1002B000AC46ACE8C009ACE8C009ACE8C009ACE8A1
:1002C000C0098D46704710B50446AFF30080204644
:1002D000BDE81040FFF797BF00BFFEE77047000082
:1002E000F0B50A46002300240021002500F0004656
:1002F000B6F1004F02D11D4EF16901E01B4E71684D
:10030000C0F3034583B200F44016B6F5401F08D190
:1003100021F07061154E766826F07066134F7E608E
:1003200012E000F48016B6F5801F06D1032606FA07
:1003300005F4A14341F0706106E0460D360103FA71
:1003400006F6B14341F0706122B1460D360103FA61
:1003500006F6314300F00046B6F1004F02D1034EDD
:10036000F16101E0014E7160F0BD0000000001404C
:10037000416170470161704700BFFEE70A4880692C
:1003800040F01000084988610848406820F4700077
:10039000064948600846406840F4401048600846F6
:1003A000C068C860704700000010024000100140A3
:1003B0002DE9FC4104460D4616466B4606223B21BC
:1003C000682000F0EBF90746BFB99DF801009DF8E1
:1003D000001040EA012000B220809DF803009DF843
:1003E000021040EA012000B228809DF805009DF827
:1003F000041040EA012000B230803846BDE8FC819C
:100400002DE9FC4104460D4616466B460622432163
:10041000682000F0C3F90746BFB99DF801009DF8B8
:10042000001040EA012000B220809DF803009DF8F2
:10043000021040EA012000B228809DF805009DF8D6
:10044000041040EA012000B230803846BDE8FC814B
:1004500010B500200E4908600E48406820F4704036
:100460000C4948600846406840F44050486000200D
:100470000949C1F8AC0100F011F8012004490860F5
:1004800000F00CF800200449C1F8B00110BD0000D4
:10049000B0012242001001400000224210B50220AB
:1004A00001F084F910BD00000B48806940F0100095
:1004B000094988610948406820F47F20074948605D
:1004C0000846406840F44C3048600846C06840F434
:1004D000C050C8607047000000100240001001408A
:1004E00010B500200E4908600E48406820F47040A6
:1004F0000C4948600846406840F44050486001207C
:100500000949C1F8AC01FFF7C9FF0120044908609F
:10051000FFF7C4FF00200449C1F8B00110BD00007E
:10052000B0012242001001400000224270B5054691
:1005300000241648406820F470401449486008467A
:10054000406840F400404860002614E00020104954
:100550000860FFF7A3FF01200E49C1F8B001600653
:10056000040E0B488438006808B1601CC4B2FFF761
:1005700095FF701CC6B2082EE8DB15B9FFF7B0FF77
:1005800001E0FFF765FF204670BD0000001001404C
:10059000B00122420000224270B504461248406871
:1005A00020F47040104948600846406840F44050CC
:1005B000486000200D490860002512E0E0090B4961
:1005C000091F08606006040E01200949C1F8B00146
:1005D000FFF764FF002005490860FFF75FFF681C14
:1005E000C5B2082DEADB70BD00100140B001224207
:1005F0000000224210B50E48406820F470400C49BB
:1006000048600846406840F440504860012009496D
:1006100008600949C1F8B001FFF740FF0020054913
:100620000860FFF73BFF00200349C1F8B00110BD8F
:1006300000100140AC0122420000224210B50E48D9
:10064000406820F470400C4948600846406840F417
:10065000405048600020094908600949C1F8AC01D0
:10066000FFF71CFF0120054908600549C1F8AC01EE
:10067000FFF714FF10BD000000100140B00122423E
:100680000000224210B500241448406820F4704055
:10069000124948600846406840F400404860012024
:1006A0000F490860FFF7FAFE01200E49C1F8B001BA
:1006B000FFF7F4FE07E0601CC4B2FA2C03DDFFF77D
:1006C000BDFF012010BD0648803800680028F2D127
:1006D0000349091D086000BFF4E700000010014055
:1006E000AC0122420000224210B5FFF7DDFE80215E
:1006F0006B2000F0D7F8642001F03AF800216B205D
:1007000000F0D0F8032000F08BF8002000F080F813
:10071000322000F0AAF80021382000F0C3F80021B0
:100720006A2000F0BFF80021232000F0BBF88021F0
:10073000372000F0B7F8752000F013F80446682C55
:100740000BD101216B2000F0ADF800216C2000F0EE
:10075000A9F8322000F089F801E0012010BD002046
:10076000FCE770B50446FFF745FFD020FFF714FF04
:10077000FFF788FF2046FFF70FFFFFF783FFFFF724
:1007800039FFD120FFF708FFFFF77CFF0020FFF7BC
:10079000CDFE0546FFF752FF284670BD2DE9F0411A
:1007A00006460F4614461D46FFF724FF002141EA86
:1007B0004601C8B2FFF7F0FEFFF764FF20B1FFF774
:1007C0003DFF0120BDE8F0813846FFF7E5FEFFF769
:1007D00059FFFFF70FFF012101EB4601C8B2FFF7F8
:1007E000DBFEFFF74FFF0DE0012C04D10020FFF7E7
:1007F0009DFE287003E00120FFF798FE2870601E20
:10080000C4B26D1C002CEFD1FFF718FF0020D9E710
:1008100010B50446E006010E1C2000F043F810BDA0
:1008200010B50446E006010E1B2000F03BF810BD99
:1008300070B504460025BC2C01DB012510E0622CBC
:1008400001DB02250CE02A2C01DB032508E0142C37
:1008500001DB042504E00A2C01DB052500E0062568
:1008600029461A2000F01EF870BD70B50446B4F594
:100870007A7F01DD4FF47A74042C00DA04244FF4FB
:100880007A7090FBF4F0401EC5B22946192000F0A2
:1008900009F80546264604EBD671C1F34F00FFF771
:1008A000C7FF70BD70B505460C46FFF7A3FED0200C
:1008B000FFF772FEFFF7E6FE18B1FFF7BFFE01205B
:1008C00070BD2846FFF768FEFFF7DCFE2046FFF705
:1008D00063FEFFF7D7FE18B1FFF7B0FE0120EFE788
:1008E000FFF7ACFE0020EBE72DE9F04105460E4690
:1008F00017469846FFF77EFE002141EA4501C8B23F
:10090000FFF74AFEFFF7BEFE20B1FFF797FE01207A
:10091000BDE8F0813046FFF73FFEFFF7B3FE00244D
:100920000CE018F80400FFF737FEFFF7ABFE18B134
:10093000FFF784FE0120EBE7601CC4B2BC42F0DB91
:10094000FFF77CFE0020E3E700B5002015490861B1
:10095000C8601420486100208861C86108460068AA
:1009600040F001000860084640680F4908400D4902
:100970004860084600680D4908400A490860084672
:10098000006820F4802008600846406820F4FE00DB
:1009900048600020886000214FF0006000F008F8F7
:1009A00000BD0000001002400000FFF8FFFFF6FE4F
:1009B000024A0A400243024B1A60704780FFFF1F41
:1009C00008ED00E000BFFEE77047000038B50446C0
:1009D00000F054F8284800EB842000237F221946B9
:1009E0000090184600F06AF8234800EB84200123A9
:1009F0007F2200210090084600F060F81E4800EBBE
:100A0000842002237F2200210090084600F056F83F
:100A1000194800EB842003237F2200210090084620
:100A200000F04CF8144800EB842004237F220021BE
:100A30000090084600F042F80F4800EB84200523A0
:100A40007F2200210090084600F038F80A4800EBA9
:100A5000842006237F2200210090084600F02EF813
:100A6000054800EB842007237F22002100900846E0
:100A700000F024F838BD0000C601002070B5002445
:100A800019E004F1B001C8B2002100F0B7F900216B
:100A9000084600F0B3F90021102000F0AFF900255E
:100AA00005E00121002000F0A9F9681CC5B2802DE5
:100AB000F7DB601CC4B2082CE3DB70BD2DE9F05FEE
:100AC00006460F4690461C46DDF828A04FF0000B66
:100AD000E11704EB5171C910A4EBC10131B92046F3
:100AE000E11704EB5171C1F3C70506E02046E11799
:100AF00004EB5171C910491CCDB23D4615E02946A1
:100B0000304600F0E9F8B1460BE059460BF1010B15
:100B10001AF80100012100F071F909F1010000F05B
:100B2000FF09C145F1DB681CC5B2A542E7DBBDE8A2
:100B3000F09F000010B501206349886101216348DE
:100B4000FFF7CEFB6048806940F008005E4988618D
:100B50005F4800684FF60F7108405D49086008461D
:100B600000685C4908435A490860594808300068E1
:100B700040F400705649083108600846006840F4A7
:100B8000805008600846006840F40050086008463D
:100B9000006840F4804008600846006840F4004067
:100BA00008604FF480414A48001FFFF7E3FB6420D0
:100BB00000F0DEFD4FF480414548001FFFF7D8FBF1
:100BC000642000F0D5FD4FF480414148001FFFF73D
:100BD000D1FB0021AE2000F011F90021084600F001
:100BE0000DF90021102000F009F90021402000F04B
:100BF00005F90021812000F001F90021CF2000F04B
:100C0000FDF80021A12000F0F9F80021C82000F033
:100C1000F5F80021A62000F0F1F80021A82000F04E
:100C2000EDF800213F2000F0E9F80021D32000F08A
:100C3000E5F80021084600F0E1F80021D52000F099
:100C4000DDF80021802000F0D9F80021D92000F043
:100C5000D5F80021F12000F0D1F80021DA2000F0D1
:100C6000CDF80021122000F0C9F80021DB2000F0AF
:100C7000C5F80021402000F0C1F80021202000F03C
:100C8000BDF80021022000F0B9F800218D2000F00D
:100C9000B5F80021142000F0B1F80021A42000F0E4
:100CA000ADF80021A62000F0A9F80021AF2000F047
:100CB000A5F80021AF2000F0A1F8FFF7DFFE00212A
:100CC000084600F009F810BD001002400002300094
:100CD000040C01403000333370B504460D4605F175
:100CE000B001C8B2002100F089F8102141EA1410C7
:100CF000002100F083F804F00F0141F00100002111
:100D000000F07CF870BD00002DE9F04107460E466A
:100D1000904600250024A8F12000C5B27F2F02DDF7
:100D20000027B01CC6B231463846FFF7D5FF002475
:100D300008E004EB05110F4A505C012100F05EF859
:100D4000601CC4B2082CF4DB701CC1B23846FFF73B
:100D5000C3FF002409E004EB05110831054A505C8B
:100D6000012100F04BF8601CC4B2082CF3DBBDE895
:100D7000F08100000A3300082DE9FF5F0746914625
:100D80001D460E9E4FF0000A002433E0281B401E33
:100D9000C1B20A2001F0BEF8B9FBF0F00A21B0FBA5
:100DA000F1F201FB1208BAF1000F13D1681EA04244
:100DB00010DDB8F1000F0BD1B34606EBDB71491023
:100DC00001FB0471C8B220220199FFF79DFF0FE0DB
:100DD0004FF0010AB34606EBDB71491001FB0471C9
:100DE000C8B208F13001CAB20199FFF78DFF00BF08
:100DF000601CC4B2AC42C9DBBDE8FF9F70B50446BD
:100E00000E462EB14FF400411C48FFF7B3FA04E040
:100E10004FF400411948FFF7ABFA4FF4007117483F
:100E2000FFF7A6FA00251BE04FF480511348FFF7A7
:100E30009FFA04F0800028B14FF400510F48FFF7EB
:100E400099FA04E04FF400510C48FFF791FA4FF47F
:100E500080510A48FFF78EFA6006040E681CC5B27E
:100E6000082DE1DB4FF400710448FFF783FA4FF4DB
:100E700000410248FFF77EFA70BD0000000C0140FF
:100E80007047704730B504460025FFF75DFD1F48E9
:100E9000006840F480301D49086000BF1B480068AE
:100EA000400C0028FAD04FF4806018494860A01E1A
:100EB000C4B20846406840EA84404860084640683A
:100EC00040F4803048601248006840F03200104919
:100ED00008600E48006840F080700C49086000BF50
:100EE0000A480068400E0028FAD00848406840F0E0
:100EF00002000649486005E004484068C0F38705E1
:100F000005F00305022DF7D130BD000000100240AE
:100F100000200240704700001D49098801F02001AF
:100F200011B31B49091D0988C8B21A49098801F47F
:100F30000041C9B91749098801F4804161B10A2803
:100F400003D00021134A118020E01249098841F49E
:100F50000041104A118019E00D2806D10D49098879
:100F600041F480410B4A118010E00A490988C1F31D
:100F70000D01094A505407490988491C054A118046
:100F800011460988C72901DD002111807047000042
:100F90000038014004000020043E002000BFFEE7AE
:100FA000490050EAC12018BF04204A0D18BF40F084
:100FB000010040F2FF72B2EB515F08BF40F0020047
:100FC000012808BF052070472DE9F0414F1E00EBB6
:100FD000C7010446D1E9000115461E4637F0060256
:100FE0000DD02A46334601F081FA7F1E04EBC70379
:100FF000D3E9002301F02AF837F00602F1D1022FDD
:1010000025D0042F13D0062F18BFBDE8F0812A4643
:10101000334601F06BFAD4E90A2301F017F82A46A7
:10102000334601F063FAD4E9082301F00FF82A46A9
:10103000334601F05BFAD4E9062301F007F82A46AB
:10104000334601F053FAD4E9042300F0FFFF2A46A7
:10105000334601F04BFAD4E9022300F0F7FF2A46A9
:10106000334601F043FAD4E90023BDE8F04100F033
:10107000EDBF012201F0EFBF00F0E8BF00221346F0
:101080001046114601F09EB8024A0020110701F0F7
:10109000E2BF000001FDFFFF014600BF70470000F6
:1010A0002DE9F04D8D4F21F0004A86B005460C46E3
:1010B000BA452ADBAAEB070028430AD088488245B4
:1010C00001DC1AD1CDB106B02846BDE8F04DFFF7DE
:1010D000D0BF844A844B284601F008FA07460E46E2
:1010E000824A834B2846214601F000FA06B03A4670
:1010F0003346BDE8F04D00F0A9BF0120FFF7B0F87E
:1011000006B0BDE8F04DFFF7B9BF7A48824542DA34
:10111000BAF1795F0BDA2846FFF742FF042808BFCF
:10112000FFF7B2FF284606B02146BDE8F08D2A46FB
:101130000B46104601F0DAF9834602466E480E4629
:101140000B4606217844FFF73FFF5A46334601F02D
:10115000CDF9804669488A465A4633460421784488
:10116000FFF732FF5A46334601F0C0F900223B46F2
:1011700000F06CFF02460B464046514601F022F853
:101180002A46234601F0B2F906B02A462346BDE8B6
:10119000F04D00F05BBF284624F0004100223D46A0
:1011A0003B4601F0A1FA4FF0FF3201F054FF064632
:1011B000024653480F460B4606217844FFF704FFCA
:1011C00032463B4601F092F9CDE900014D483246E6
:1011D0003B4604217844FFF7F7FE32463B4601F0D8
:1011E00085F900222B4600F031FF834602913046FC
:1011F000394600F0D2FE804643480D46504517DC84
:10120000DDE900015A46029B00F0DCFF42462B4616
:1012100001F06CF942462B4600F018FF012201F064
:101220001AFF304A304B01F051FB304A304B4CE052
:101230004FF0000A52460B46404600F007FFCDE94A
:10124000031052462B461046194601F04FF932461C
:101250003B4601F049FADDE9033200F0B3FF0646F0
:101260000F46DDE900015A46029B00F0ABFF8346C2
:10127000009101223046394601F0EDFE194A1A4B21
:1012800001F032FA06460F4601224046294601F097
:10129000E2FE5A46009B01F029F932463B4601F036
:1012A00015FB06460F4601225046294601F0D3FEA3
:1012B0000E4DDFF858802A46434601F015FA3246B3
:1012C0003B4601F011FA2A46434601F00DFA002C84
:1012D000D8BF81F0004106B0BDE8F08D0000F03FBE
:1012E0000000F07F075C143326A6913C182D44546F
:1012F000FB21F93F0000E03F082800001E28000005
:1013000092270000A82700003333EF3FFB21E93F7D
:101310002DE9F84F04460D4621F000400091734935
:10132000814211DC7249884201DC06D12CB1204691
:101330002946BDE8F84FFFF79CBE6E48002DCCBF94
:101340006D496E49BDE8F88F6D49814211DD6D49E7
:101350008142D8BF4FF0FF366DDD20462946FFF7AA
:101360001FFE042808BFFFF78FFE20462946BDE870
:10137000F88F6549654F25F00045814233DD6449AA
:10138000814219DD002632464FF08043204629462F
:1013900000F05CFE80468A4601222046294601F084
:1013A0005AFE00223B4601F091FA4246534600F0B5
:1013B00009FF04460D463EE001260022BA463B46A0
:1013C0002046294600F042FE80460F460022534642
:1013D0002046294601F07AFA42463B4600F0F2FEEA
:1013E00004460D4627E04B4981421BDDDFF828A16A
:1013F0000226002253462046294601F077F80022B3
:101400003B4600F023FE80460F460022534620460E
:10141000294601F05BFA42463B4600F0D3FE044603
:101420000D4608E0032622462B4600203B4900F0EB
:10143000C9FE04460D4622462B461046194601F0C9
:1014400055F88B46824602460B4601F04FF8074698
:101450000246334888460B4606217844FFF7B4FD20
:1014600052465B4601F042F882462E488B463A4689
:10147000434605217844FFF7A7FD3A46434601F06D
:1014800035F802460B46002E504659460CDA00F05D
:10149000DDFD22462B4601F029F801B022462B46FD
:1014A000BDE8F04F01F020B900F0D0FD22462B46F8
:1014B00001F01CF81C4A7A4402EBC603D3E900236E
:1014C00001F004FA22462B4601F000FA174A7A444A
:1014D00002EBC603D3E9002301F006F9009A002AC3
:1014E000B8BF81F00041BDE8F88F00000000104453
:1014F0000000F07F182D4454FB21F93FFB21F9BF78
:101500000000DC3F0000203E0000F33F0000F03F01
:101510000000E63F008003400000F83F0000F0BFFD
:10152000AA2500006825000006250000CE24000042
:101530002DE9F04D9446CCF1000423F000464CEA2E
:101540000404594F46EAD4749A46884621F0004272
:10155000BC4206D8454240EA050442EAD474BC4283
:1015600004D9BDE8F04D6246FFF786BDAAF14055AB
:10157000A5F17F6555EA0C040BD0022404EAAA7495
:101580004A4DDFF82CE144EAD87452EA000B04D04B
:101590000CE0BDE8F04DFFF7BBBE002C14BF012CE2
:1015A000BDE8F08D022C30D0032C32D056EA0C0B63
:1015B0000AD0BE4220D1BA4209D126F0804622F09C
:1015C00080423346114617E000291ADB25E0DFF898
:1015D000E4B0FB44002C04BFDBE90001BDE8F08D62
:1015E000012C02BFDBE9000181F00041BDE8F08D74
:1015F000022C0AD0032C0CD0BA4212D1B8F1000F41
:101600000BDA2A482C49BDE8F08D28462B49BDE865
:10161000F08D28467146BDE8F08D24482849BDE884
:10162000F08D921B12153C2AC4BF204F244E10DCB3
:10163000BAF1000FBEBF12F13C0F00273E4608DB97
:10164000624600F0BFFD21F00041FFF761FE074652
:101650000E4694B1012C08BF86F000460DD0194A01
:10166000194B022C3846314615D001F02FF92A4685
:10167000BDE8F04D114B01F029B900221346384660
:10168000314600F0F7FE04BF0220FEF7E9FD3846C0
:101690003146BDE8F08D01F019F92A46BDE8F04D5C
:1016A000064B01F021B800000000F07F182D4454D3
:1016B000FB2109C062240000FB21F9BFFB21094086
:1016C000FB21F93F075C143326A6A13C2DE9F0412C
:1016D0000446E07800F0C006E07800F03F0560784E
:1016E00000F0010098B1EF102846E91705EB5171A1
:1016F000C910A5EBC101491C01F0FF080B480068A7
:1017000020B10A48414602683846904700BF6078D9
:1017100000F0080030B10548406818B1B011034A24
:10172000516888470020BDE8F0810000CC3E0020D1
:101730004FF0E021096921F004014FF0E02211612E
:10174000C21700EB5272C2F3C702074B1A70194658
:10175000097801EB4102C2EBC1114FF6FF7202EAB8
:10176000C101024A11807047C63D0020C83D0020DB
:1017700001460D4A12884A434FF0E0235A61002285
:101780009A6101221A6100BF4FF0E022106900F057
:1017900001021AB100F48032002AF5D000224FF085
:1017A000E0231A619A617047C83D002001460D4A46
:1017B00012784A434FF0E0235A6100229A610122D5
:1017C0001A6100BF4FF0E022106900F001021AB167
:1017D00000F48032002AF5D000224FF0E0231A6195
:1017E0009A617047C63D00202DE9F04F8DB0074645
:1017F000884615469946DDE9166B002400203080A6
:101800006B49887B5A4605A900F040FA18B1601E62
:101810000DB0BDE8F08F6648807A00F01400002813
:1018200067D09DF8140000069DF8151040EA0140AD
:101830009DF8161040EA01209DF817100843286013
:101840009DF8180000069DF8191040EA01409DF827
:101850001A1040EA01209DF81B10084368609DF8AB
:101860001C0000069DF81D1040EA01409DF81E1066
:1018700040EA01209DF81F100843A8609DF8200051
:1018800000069DF8211040EA01409DF8221040EA30
:1018900001209DF823100843E86004F11000C4B251
:1018A000286800140190686800140290A868001469
:1018B0000390E8680014049001984043029901FBEA
:1018C0000100039901FB0100049901FB010ABAF12F
:1018D000706F02DBBAF1885F05DD00F037FA002097
:1018E0003080401E94E7B6F9000040F480703080EC
:1018F00000BF2F48807A00F0400020B305A9601C8B
:10190000085C095D40EA012000B2A8F8000005A9C2
:10191000E01C095C05AAA01C105C41EA002000B292
:10192000A8F8020005A9601D095C201D105C41EAB1
:10193000002000B2A8F80400A01DC4B2B6F900004F
:1019400040F0080030801A48408900F4C07008B3A5
:1019500005A9601C085C095D40EA012000B23880DE
:1019600005A9E01C095C05AAA01C105C41EA002046
:1019700000B2788005A9601D095C201D105C41EA59
:10198000002000B2B880A01DC4B2B6F9000040F03B
:10199000700030800648807A00F0030018B105A975
:1019A0000819FFF793FE484600F05DF800202FE786
:1019B000CC3E00208AB00920FFF764FA4820FFF7E8
:1019C000B7FEFFF7B7F8FEF7D9FC0020FEF7FEFFE1
:1019D0004FF47A70FFF7CCFEFFF750F8FEF784FE65
:1019E0000446224602211E2000F09FFA4FF47A702E
:1019F000FFF7BEFE36E01920FFF7BAFE07AA08A9D6
:101A000009A800F031F868BB04AA05A906A8FEF7EA
:101A1000CFFC01AA02A903A8FEF7F2FCBDF9182029
:101A20000021084600F081FABDF9142003210020AE
:101A300000F07BFABDF910200621002000F075FAB5
:101A4000BDF90C200021462000F06FFABDF90820F6
:101A50000321462000F069FABDF904200621462042
:101A600000F063FAC7E770472DE9F04F99B00446DC
:101A70000D4616464FF07E574FF000084FF0000914
:101A80004FF0000A12A813A918AB0EAACDE9001056
:101A900014A916A8FFF7A8FE18B1012019B0BDE8D7
:101AA000F08FBDF84C0000F4807000287ED00E98B6
:101AB00001F046F983464FF09D4101F07FF807465B
:101AC0000F9801F03DF983464FF09D4101F076F803
:101AD0008046109801F034F983464FF09D4101F0A3
:101AE0006DF88146119801F02BF983464FF09D4126
:101AF00001F064F8824639464FF0804001F038F931
:101B00004946059001F034F9414607904FF04040B6
:101B100001F02EF95146059001F02AF90690079937
:101B200000F0EAFF834600F0BBFFCDE90801FFF7B4
:101B3000B7FA4FF06632544BCDE90A0100F0D6FCFB
:101B4000CDE90C0100F050FA206049464FF080408A
:101B500001F00EF94946029001F00AF9414604905D
:101B60004FF0404001F004F94146029001F000F9C5
:101B70000390049901F0C8F983464FF07E5100F0BC
:101B8000BBFF059000F08CFFCDE9080139464FF00E
:101B9000804001F0EDF84146039001F0E9F8494634
:101BA00004904FF0804001F0E3F800E068E0514617
:101BB000039001F0DDF88346049900F09DFF059045
:101BC00000F06EFFCDE90601DDE90823FFF7B0FC68
:101BD0004FF066322C4BCDE90A0100F087FCCDE9CD
:101BE0000C0100F001FA28605146504601F0C0F89F
:101BF00049460490484601F0BBF8414603904046F0
:101C000001F0B6F839460190384601F0B1F800907D
:101C1000019900F071FF0290039901F075F9834674
:101C2000049901F071F9059000F03AFFCDE908013F
:101C30005146384601F09CF849460490404601F070
:101C400097F80390049900F057FF4FF080410590FA
:101C500001F08EF8834600F023FFCDE90601DDE9AF
:101C60000823FFF765FC4FF06632074BCDE90A0108
:101C700000F03CFCCDE90C0100F0B6F9306001E069
:101C800002200BE7002009E766A64C40F8B50446A1
:101C90000F4616462C4890F8240010B94FF0FF303C
:101CA000F8BD2948807A10B94FF0FF30F8E7264A8E
:101CB0001268917A244A526810786B460222FEF725
:101CC0006DFD10B14FF0FF30EAE79DF801009DF87F
:101CD000001040EA0125A54203DA00203070401EC2
:101CE000DEE7194840684088B5EB600F17DD164AFB
:101CF0001268517C144A526810786B460122FEF734
:101D00004DFD10B14FF0FF30CAE79DF8000000F024
:101D1000100020B100F01AF86FF00100C0E7E2B245
:101D2000094B1B68D97A084B5B6818783B46FEF76D
:101D300035FD10B14FF0FF30B2E795FBF4F0401ED7
:101D400030700020ACE70000CC3D002008B57048A2
:101D5000807A10B94FF0FF3008BD002000906C4A27
:101D60001268D17B6A4A526810786B460122FEF7EE
:101D7000BBFD10B14FF0FF30EEE7654A12685179B4
:101D8000634A526810786B460122FEF7ADFD10B130
:101D90004FF0FF30E0E75E4A126811795C4A526802
:101DA00010786B460122FEF79FFD10B14FF0FF3017
:101DB000D2E7574890F82400002853D00C20009018
:101DC000534A12681179524A526810786B460122C0
:101DD000FEF78AFD10B14FF0FF30BDE73220FFF76C
:101DE000C7FCC02000904A48807A00F0010020B172
:101DF0009DF8000040F020000090454A12681179DB
:101E0000434A526810786B460122FEF76DFD10B10F
:101E10004FF0FF30A0E73E48407C10B10220009018
:101E200001E0002000903A4A1268D17B384A52689B
:101E300010786B460122FEF757FD10B14FF0FF30CE
:101E40008AE700200090324A12685179304A52687D
:101E500010786B460122FEF747FD002855D04FF061
:101E6000FF3079E704200090294A12681179284A46
:101E7000526810786B460122FEF736FD10B14FF024
:101E8000FF3069E72248807C20B92148807A00F041
:101E9000010010B94020009001E0602000901C4A31
:101EA000126811791A4A526810786B460122FEF7BF
:101EB0001BFD10B14FF0FF304EE73220FFF758FC0A
:101EC0001348407C10B10120009001E000200090F8
:101ED0000F4A1268D17B0E4A526810786B46012275
:101EE000FEF702FD10B14FF0FF3035E7084A1268E7
:101EF0005179074A52681078054B10330122FEF7DA
:101F0000F3FC10B14FF0FF3026E7002024E700007B
:101F1000CC3D002010B50246012000E050430B1ECE
:101F2000A1F10104E1B2F9D110BDF8B504460D46A6
:101F30001646642096FBF0F70320E9B20090E0B269
:101F400001233A46FEF718FF0A2096FBF0F00A211B
:101F500090FBF1F201FB12070320E9B204F1080241
:101F60000090D0B201233A46FEF706FFE9B204F131
:101F70001002D0B22E22FEF7C7FE0A2096FBF0F127
:101F800000FB11670320E9B204F115020090D0B202
:101F900001233A46FEF7F0FEF8BD2DE9F041064672
:101FA0000F4600F0ADFB041E0D4618BF012028436C
:101FB00020F00040C0F17F6000F1E040C00F0ED083
:101FC000301C18BF0120384320F00040C0F17F6072
:101FD00000F1E040C00F04BF0120FEF741F92046A8
:101FE0002946BDE8F081000021F00042A2F16052D4
:101FF000B2F5801F01F0004328BFD2F17F6C0BD9EE
:102000005FEA001C43EAC20242EB507018BF7047FF
:1020100028BF20F001007047B2F5801FBCBF1846F2
:1020200070474FEA410C1CF5001F02D2084600F031
:1020300066BF70B500F004FB00000089FFF7F6BF33
:102040004FF00040A0F580007047000010B591EA05
:10205000030F48BF83F0004300F14084841A71EB02
:10206000030C05D2121943EB0C03001B61EB0C01AE
:10207000DFF824E14FEA1154A4EB135C1EEA430F8E
:1020800018BF9EEA445F73D023EA0E03DCF1200EF2
:1020900021EA045143F4801332D322FA0CFE10EBF0
:1020A0000E0023FA0CFE41EB0E01CCF1200E03FAD8
:1020B0000EFE10EB0E0051F10001B1F5801FCCF1C6
:1020C000200E32D201EB045112FA0EF2BDE810409C
:1020D00058BF7047401C38BF5FEA420218BF7047C4
:1020E000002814BF20F0010041F100014FEA410334
:1020F00013F5001F38BF7047A1F1C04100F0EEBAE0
:10210000012A43EB0302ACF1200CDCF11F0E32BFBD
:102110004FF0000E23FA0CF310EB030041EB0451D7
:10212000B4EB115FD0D0A1EB045101F58011490847
:102130005FEA300001EB04510ED350F1000038BFCC
:1021400012FA0EFE08D1BDE81040C9E7401C38BFA6
:102150005FEA4202CAD1C3E7BDE810404FEA41033B
:1021600013F5001F38BF7047A1F1C04100F0B6BAA7
:102170009EEA445F08D011EA5E0FBDE8104004BF3C
:1021800001F0004100207047BDE8104070B500F03C
:1021900057FA00BF64FBBE3E0000E0FF02494FF06B
:1021A000000000F026BF00BF0000F87F491058BFB4
:1021B000C1F140415B1058BFC3F140438B42EFF384
:1021C000008070472DE9C04130B4DFF8A0C23CEA7E
:1021D000111418BF3CEA131400F0EC8081EA0305E7
:1021E0001CEA111444EAD57418BF1CEA131500F058
:1021F000C780A4EB05044FF0004545EAC12145EA3C
:10220000C32341EA505143EA525304F17F74994287
:1022100004F500344FEAC0204FEAC22208BF9042C2
:1022200000F09C804FEA13650FF24016765D4FEA8E
:10223000134506FB05F7C7F1807706FB07F74FEA62
:10224000D737A7FB03687642C8F58038A7FB06CED0
:1022500038BFA8F1010807FB08E64FF0000EA6FB07
:10226000028CE6FB03CEDCF1000CCEF1004E38BF51
:10227000AEF1010EA6FB0C584FF000074FF0000521
:10228000E6FB0E87A1FB08C6A0FB07CE16EB0E06E9
:1022900045F10005E1FB076515F1E04E7EBFA4F5B1
:1022A00080345FEA46066D4116F1800745F100056E
:1022B0004FEA17274FEA066647EA0567A6F1DE46AA
:1022C000B6F1805F4FEA15251FD9384624F0010C7E
:1022D00005EBC471BCF1FE6F01EB0C1102D8F0BC30
:1022E000BDE8008124425CBF01F5801E9EEAC47FE8
:1022F00002D4F0BCBDE80081244238D4F0BCA1F186
:10230000C041BDE8004100F0E9B94FEAD22242EAFB
:1023100043524FEAD323A7FB02864FEAD02040EA7C
:10232000415007FB03661EEA0E0F4FEAD12105FB61
:10233000026658BFA6EB0056B6EB00564FEA520EA7
:102340004EEAC37E18EB0E0E56EB530EBDD518EBBE
:1023500002085E417F1C55F10005B6E74FF4801579
:102360004FF000074FF000064FF00008ADE7F0BC5B
:102370004FF0000001F1C04101F00041BDE80081D3
:1023800011EA0C1F0CEA131500D00CE013EA0C1F25
:1023900000F025804FF00000F0BC81EA030101F05D
:1023A0000041BDE80081F0BCBDE8004181EA0301C5
:1023B00000F094B9F0BCBDE8004170B500F040F900
:1023C000097EFC3E00F007B881EA03014FF00000EF
:1023D00001F00041704781EA030100F07FB9F0BCD1
:1023E000BDE800414FF0000021497047FFFDFBF9B7
:1023F000F7F5F4F2F0EEEDEBE9E8E6E4E3E1E0DE38
:10240000DDDBDAD8D7D5D4D3D1D0CFCDCCCBCAC8A9
:10241000C7C6C5C4C2C1C0BFBEBDBCBBBAB9B8B7D0
:10242000B6B5B4B3B2B1B0AFAEADACABAAA9A8A8C3
:10243000A7A6A5A4A3A3A2A1A09F9F9E9D9C9C9B91
:102440009A9999989797969595949393929191903C
:102450008F8F8E8E8D8C8C8B8B8A898988888787CD
:102460008685858484838382828181800000FF0742
:102470000000F87F51EA030C17D41CF5801F58BFE9
:10248000BCF5801F00F10680994218BF704708BF55
:102490009042704707D711F5801F58BF13F5801F72
:1024A00019D499427047894270471CF5801F08D59E
:1024B000BCF5801FF7D58B4218BF704708BF82421A
:1024C00070474FF4001C1CEB410F38BF1CEB430F4F
:1024D00001D28B42704770B500F0B2F892244900E7
:1024E0004FF000514FF08053FFF760BEDFF848C156
:1024F00070B51CEA111E1EBF1CEA13159EEA0C0FD4
:1025000095EA0C0F00F06F8081EA030423EA4C1374
:102510004EEAD47E21EA4C1141F4801143F4801339
:10252000AE44A1FB024CA0FB0365AEF17F7E3619E1
:1025300055EB0C05A1FB034C4CF10003A0FB021C66
:1025400016EB0C06654153F10003094218BF46F033
:10255000010613F4007F0BD14FEA03314FEA053037
:10256000340341EA155140EA16506FF003020AE0C5
:102570004FEAC3214FEAC520F40241EA555140EA2F
:1025800056506FF0020202EB2E4201EB025585EA33
:10259000CE710AD05FEA440C18BF24F0004450F119
:1025A000000041F1000120EAD47040F2FE7C624557
:1025B00000D270BDA84214BF4FF080444FF0404499
:1025C000002E08BF0024BEF1806FA8BFA1F1C0415A
:1025D000BDE8704080F282804FF0000001F1C04100
:1025E00001F0004170479EEA0C0F0CEA131518BF6A
:1025F00095EA0C0F06D04FF0000081EA030E0EF0B2
:10260000004170BD00F01CF88900013E00F007B8E1
:1026100000F009B84FEA430C5FEA5C5C08D081EA3D
:10262000030100F05BB84FEA410C5FEA5C5CF6D155
:102630004FF00000014970470000FF070000F87FDD
:102640000EF1020E2EF0030E5EF8046B364205D436
:10265000012A43EB030515F5001F12D8012841EBB1
:10266000010C1CF5001F0CD80ED14FEAD17C15F5DA
:10267000001F0CEB4C0C0CF1020C08BF4CEBD37C94
:1026800004E04FF0080C01E04FEAD37C0CEB4C0562
:1026900026FA05F606F00706B6F1040C06D20EEB94
:1026A000860CBDE870404CF0010C6047DFE80CF090
:1026B000090B02024FF000414FF00000A1F500218C
:1026C00070BD19461046012851EB010418BFD4F51E
:1026D000001484BF002001F0004170BD0808A0F57F
:1026E00000114FEA3101704791EA030F10B581F0F4
:1026F00000413FF5B3AC83F0004300F0EFB80000B9
:102700002DE9F04101F5801CBCF5001FC0F2C3802B
:102710004FEA115C21EA0C510CF1FD0C41F48011DF
:102720005FEA5C0C0CF5C07C01D3400049413DA43C
:10273000890241EA905187028E0E0A0CA45D04FBC7
:1027400004F602FB06F6C6F14046A4FB0662F60D4F
:1027500046EA422606FB06F4A4FB01235242C3F1DB
:10276000404338BF5B1EA6FB02420024E6FB032465
:10277000D20B42EA4446A6FB0623A1FB02E2A3FBDE
:1027800007E4A4184FF0000252F10002E3FB0142FB
:102790006442C2F1404E38BFAEF1010EA6FB0423E5
:1027A0004FF00002E6FB0E32A2FB03464FF000049E
:1027B000B61954F10004E2FB0264A1FB06E6A4FB97
:1027C00007E816EB08064FF0000858F10008E4FB94
:1027D00001687642C8F1405838BFA8F10108A2FB51
:1027E00006E4A3FB08E52D194FF0000454F10004A2
:1027F000E2FB0854A1FB05E6A7FB04E818EB06087A
:102800004FF0000656F10006E1FB048618F12005A2
:1028100056F10006A809A8F11B08B10908F03F0805
:10282000B8F10A0F40EA86601CD901EB0C51BDE8F3
:10283000F08100BFFCF5EEE8E2DDD8D3CFCBC7C313
:10284000C0BDB9B6B4B1AEACA9A7A5A3A19F9D9BCD
:102850009A9896959392908F8D8C8B898887868590
:1028600084838281A0FB006800FB01F208EB420830
:10287000B8EB872807D5341858EB0104D5D5401C90
:1028800051F10001D1E7341A78EB0104CDD4401E98
:1028900071F10001C9E75FEA4C0C5FEA9C5C0DD165
:1028A00005D34FF0000001F00041BDE8F081BDE824
:1028B000F04170B5FFF7C4FE6DDBFFBEBDE8F0412F
:1028C0004FF00000004970470000F87F10B591EA12
:1028D000030F48BF83F000433FF5C0AB841A71EB90
:1028E000030C07D212198CF0004C43EB0C03001BB5
:1028F00061EB0C01DFF8A4E14FEA1154A4EB135C87
:102900001EEA430F18BF9EEA445F00F0B08023EA3E
:102910006E03524221EA0451C3EB6E0338BF5B1EC3
:10292000DCF1200E25D322FA0CFE10EB0E0043FA48
:102930000CFE41EB0E01CCF1200E03FA0EFE10EB63
:102940000E0051F10001CCF1200E29D412FA0EF242
:1029500001EB0451BDE8104058BF7047401C1CBF3C
:10296000B2F1004F704700280CBF491C20F0010055
:10297000704712EB020E43EB030218BF4FF0010E3B
:102980004EEA4202ACF1200CDCF11E0E54D943FA9F
:102990000CFE10EB0E0051F1FF31CCF11E0ED5D51F
:1029A0000EF1010E12FA0EFE404141EB010101EB66
:1029B000445C5FEA5C5C10D910EBDE7001EB045103
:1029C00038BFBEF1004FBDE8104018BF7047002867
:1029D0000CBF491C20F00100704730D24FEAD42CC4
:1029E00011F5001124F400641BD0B1FA81F20B3A06
:1029F000A41AA41ED2F12003914030FA03F3194324
:102A0000904001EBCC71002C01EB0451BDE810406B
:102A1000A8BF704701F1C0414FF0000001F0004134
:102A20007047B0FA80F310FA03F100D110BDE41A38
:102A3000173C4805C90AE4E701EB045110BD4910F1
:102A400001EB0451BDE810404FEA300002E04FF0C6
:102A5000000170474A0008BF0042F8D0B2F5001FDD
:102A600028BF704701F000414FF0000070479EEA18
:102A7000445F07D011EA5E0FBDE8104004BF00219B
:102A800000207047BDE8104070B5FFF7D9FD00BFCA
:102A900040DFF63E83F00041104670470000E0FF43
:102AA00043004FEAD30C4FEA3C0C43401FBF4007A2
:102AB0000CF1605113F0FE4F70471CF0006F03D112
:102AC00000200CF0004170470CF0004343EA5070C6
:102AD00010B540EACC0000F0CCF900BF0000009235
:102AE0004FEA0001FFF7FABD4FF000414FF0000040
:102AF000A1F500217047000090EA010F48BF81F066
:102B0000004100F10882421A3CBF801A89184FEA3E
:102B1000D0524FF07F4C1CEA410FA2EBD15318BFAB
:102B20009CEA026F00F03B804FF0004C4CEA002022
:102B30004CEA012121FA03FC10EB0C0C1ED202F12D
:102B4000FF325FEA1C2040EBC25038BF70471CF0D8
:102B50007F0F4FEA400C18BFBCF17F4F38BF704762
:102B6000C3F12003994008BF20F00100BCF17F4F62
:102B700038BF7047A0F1C04000F0C1B94FEA3C0037
:102B8000000A40EBC25028BF1CF0FF0F4FEA400C78
:102B9000E6D018BFBCF17F4F38BF7047EAE79CEA28
:102BA000026F05D010EA5C0F08BF00F000407047CC
:102BB00010B500F05EF900BF64FBBE3E4FF47F0C21
:102BC0001CEAD0121EBF1CEAD11392EA0C0F93EA42
:102BD0000C0F00F0858090EA010F48BF42F480722C
:102BE00040F4000C41F400002CF07F4120F07F40C5
:102BF00000B58142A2EB03020FF2081CACEB504E71
:102C0000C0F100009EF800E04FEA4E0E00FB0EFC03
:102C100038BF49004FEA2C1C02F5FA020CFB0EF3F8
:102C20004FEACE1E4FEA112C4FEAC1210EEB635E34
:102C300042EB22420EFB0CFC4FEA1C5300FB03113B
:102C40004FEA112C4FEA01310EFB0CFC4FEADC4C31
:102C500000FB0C11C14228BF09184CEB03335DF88F
:102C600004EB10EB410143EBC250B2F57C0F38BFCF
:102C7000704729D512F0F00F1CBF00F1C04000F0E2
:102C800000407047008182838485868788898B8C89
:102C90008D8E8F919293959697999A9C9D9FA0A2C5
:102CA000A3A5A7A8AAACAEB0B2B3B5B7B9BCBEC015
:102CB000C2C5C7C9CCCED1D4D7D9DCDFE2E6E9ECB6
:102CC000F0F3F7FAFE0000004FEA400C0CF1807CB4
:102CD000BCF17E4F28BF7047B0F1C04000F00FB983
:102CE00090EA010F0CEAD11348BF42F480726245AA
:102CF00038BF634507D213F47F0F16D080EA010076
:102D000000F00040704710B500F0B3F8097EFC3EBB
:102D100000F005B880EA010000F00040704780EA4A
:102D2000010000F0004000F0EAB812F47F0F04BF89
:102D30000248704780EA010000F0E1B80000C07F5F
:102D400010F0004148BF4042B0FA80F310FA03F29D
:102D5000C3F19D030BD051EAC35101EB122053067E
:102D600038BF704700F1010008BF20F00100704734
:102D70004FF47F0C1CEAD0121EBF1CEAD11392EA5A
:102D80000C0F93EA0C0F00F0478090EA010F48BF48
:102D900042F480724FF0004C4CEA00204CEA0121D2
:102DA00002EB0302A0FB0113A2F50002002918BFE9
:102DB00043F001035B0028BF4FEA330342EB22429A
:102DC0005FEA132C4CEBC2502EBFBCEB436FB2F545
:102DD0007C0F70474FEA036CBCF1004F08BF20F036
:102DE0000100B2F57C0F38BF70470BD582F0FF02AF
:102DF00012F5803FC8BF704700F1C040D8BF00F057
:102E00000040704700F5000C5FEA4C0C48BF70476B
:102E1000B0F1C04000F073B890EA010F0CEAD11392
:102E200048BF42F48072624538BF634504D280EAED
:102E3000010000F00040704710B500F01AF800BF24
:102E40008900013E00F007B800F009B85FEA410CC4
:102E50005FEA1C6C08D080EA010000F050B85FEA1D
:102E6000400C5FEA1C6CF6D14FF00040A0F58000EA
:102E700070470EF1020E2EF0030E5EF8044B244252
:102E800004D44FEA4102B2F17F4F11D84FEA400318
:102E9000B3F17F4F0CD80ED14FEAD07CB2F17F4F07
:102EA0000CEB4C0C0CF1020C08BF4CEBD17C04E099
:102EB0004FF0080C01E04FEAD17C0CEB4C0324FAF4
:102EC00003F404F00704B4F1040C06D20EEB840CF6
:102ED000BDE810404CF0010C6047DFE80CF007083B
:102EE00002024FF00040A0F5800010BD08464200ED
:102EF00018BFD2F1807288BF00F0004010BDFF21E2
:102F000041EAD050C005704790EA010F48BF81F0F8
:102F100000413FF5F8AD421A04D882F00042A0EB20
:102F2000020011444FEAD0524FF07F4C1CEA410F8F
:102F3000A2EBD15318BF9CEA026F4AD04FF0004C6D
:102F40004CEA00204CEA012121FA03FCB0EB0C0C06
:102F50000FD412F0FE0F36D05FEA4C001DD50012E0
:102F600040EBC25038BF70471CF03F0F18BF70478E
:102F70000BE0A2F101025FEA1C2040EBC25038BF17
:102F800070471CF07F0F18BF7047C3F120039940B2
:102F900014BF401E20F00100704780084FEA122342
:102FA00008BF7047B0FA80FCA2EB0C02CCF1280CF1
:102FB00060FA0CF093EA122F04BF00EBC250704786
:102FC0004FEAC3707047130A5FEADC1008BF70470E
:102FD000F6E79CEA026F04D010EA5C0F08BF0020FD
:102FE000704710B5FFF745FF40DFF63E81F0004027
:102FF00070470CF00F03092B08BF082000F0598020
:103000000A2B0BD0082B18BF704708BF1CF0400FCD
:103010000AD04FF000004FF0000170471CF0400F45
:1030200018BF4FF0004070471CF0100F08D020F080
:10303000704300F07F4242EAD3014FEA4370704789
:1030400000F0604021F07F4242EA000201F07F4040
:1030500040EA727070474FF0FF0C4CF4E06C1CEAD1
:1030600011531CBF9CEA030C9445C2BFDA4201EB2A
:1030700002517047002B0DD0BCF1000F0FD0002A79
:1030800001F00041A4BF41F0E04141F07F614FF009
:103090000000704701F000414FF00000704750EA17
:1030A00001334FF09B0C18BF4CF0806C7FF476A876
:1030B00070471CF4801F11D01CF4E02F03D06FEA7E
:1030C000CC31490070474FF04050EFF3008222F0BE
:1030D000704242EA000282F3008870474FF000001D
:1030E00070470000000000000000002F00000000FA
:1030F0000700070000147F147F1400242A7F2A127F
:10310000006264081323003649552250000005036D
:10311000000000001C224100000041221C0000149D
:10312000083E08140008083E0808000000A06000DF
:10313000000808080808000060600000002010086F
:103140000402003E5149453E0000427F40000042DB
:1031500061514946002141454B31001814127F103E
:10316000002745454539003C4A494930000171096D
:10317000050300364949493600064949291E000021
:1031800036360000000056360000000814224100C8
:1031900000141414141400004122140800020151F8
:1031A000090600324959513E007C1211127C007F01
:1031B00049494936003E41414122007F4141221C9C
:1031C000007F49494941007F09090901003E414901
:1031D000497A007F0808087F0000417F41000020F5
:1031E00040413F01007F08142241007F40404040A1
:1031F000007F020C027F007F0408107F003E4141E7
:10320000413E007F09090906003E4151215E007FD1
:10321000091929460046494949310001017F010148
:10322000003F4040403F001F2040201F003F4038EB
:10323000403F00631408146300070870080700612A
:103240005149454300007F41410000552A552A5508
:10325000000041417F0000040201020400404040A0
:103260004040000001020400002054545478007FC4
:103270004844443800384444442000384444487F9B
:1032800000385454541800087E0901020018A4A400
:10329000A47C007F080404780000447D40000040C6
:1032A00080847D00007F102844000000417F4000A2
:1032B000007C04180478007C080404780038444436
:1032C000443800FC242424180018242418FC007C12
:1032D0000804040800485454542000043F4440208B
:1032E000003C4040207C001C2040201C003C403022
:1032F000403C004428102844001CA0A0A07C0044AE
:1033000064544C44141414141414000000000000FD
:1033100000000000000000000000000000F80000B5
:103320000000000000333000000000100C06100CFC
:103330000600000000000000000040C07840C07897
:103340004000043F04043F040400007088FC08307F
:103350000000001820FF211E0000F008F000E01817
:10336000000000211C031E211E0000F008887000D0
:1033700000001E2123241927211010160E00000022
:1033800000000000000000000000000000E0180441
:103390000200000000071820400000020418E000AE
:1033A00000000040201807000000404080F08040EE
:1033B00040000202010F01020200000000F00000C4
:1033C00000000101011F01010100000000000000D8
:1033D000000080B07000000000000000000000004D
:1033E00000000001010101010101000000000000D6
:1033F000000000303000000000000000000080608D
:103400001804006018060100000000E01008081011
:10341000E000000F102020100F00001010F8000036
:1034200000000020203F20200000007008080888CD
:10343000700000302824222130000030088888489D
:1034400030000018202020110E000000C02010F8CD
:10345000000000070424243F240000F8088888089E
:1034600008000019212020110E0000E010888818A3
:103470000000000F112020110E0000380808C83885
:1034800008000000003F0000000000708808088865
:103490007000001C222121221C0000E010080810EE
:1034A000E0000000312222110F00000000C0C00027
:1034B000000000000030300000000000008000002C
:1034C000000000008060000000000000804020102C
:1034D0000800000102040810200040404040404025
:1034E0004000040404040404040000081020408088
:1034F00000000020100804020100007048080808BD
:10350000F0000000003036010000C030C828E8108C
:10351000E0000718272423140B000000C038E00047
:103520000000203C23020227382008F88888887091
:103530000000203F202020110E00C030080808089D
:103540003800071820202010080008F80808081084
:10355000E000203F202020100F0008F88888E808AD
:103560001000203F20202320180008F88888E80851
:103570001000203F200003000000C0300808083879
:10358000000007182020221E020008F8080000088A
:10359000F808203F210101213F20000808F8080811
:1035A00000000020203F2020000000000808F8084C
:1035B0000800C08080807F00000008F888C02818BC
:1035C0000800203F20012638200008F808000000ED
:1035D0000000203F20202020300008F8F800F8F8F4
:1035E0000800203F003F003F200008F830C00008DE
:1035F000F808203F200007183F00E01008080810D6
:10360000E0000F10202020100F0008F8080808081C
:10361000F000203F210101010000E010080808101F
:10362000E0000F18242438504F0008F88888888854
:103630007000203F2000030C30200070880808082C
:1036400038000038202121221C00180808F808083A
:1036500018000000203F2000000008F808000008C3
:10366000F808001F202020201F000878880000C8CC
:103670003808000007380E010000F80800F80008BC
:10368000F800033C0700073C0300081868808068C6
:10369000180820302C03032C30200838C800C83804
:1036A00008000000203F2000000010080808C8386B
:1036B00008002038262120201800000000FE020209
:1036C00002000000007F40404000000C30C00000BD
:1036D0000000000000010638C00000020202FE00E7
:1036E0000000004040407F00000000000402020291
:1036F00004000000000000000000000000000000C6
:1037000000008080808080808080000202040000B1
:1037100000000000000000000000000080808080A9
:1037200000000019242222223F2008F80080800097
:103730000000003F112020110E000000008080805A
:103740000000000E11202020110000000080808861
:10375000F800000E112020103F20000080808080A3
:103760000000001F222222221300008080F088889F
:1037700088180020203F20200000000080808080EA
:103780008000006B94949493600008F8008080801F
:103790000000203F210000203F200080989800007A
:1037A00000000020203F20200000000000809898AA
:1037B000000000C08080807F000008F8000080804A
:1037C0008000203F24022D302000000808F800006F
:1037D00000000020203F202000008080808080802A
:1037E0008000203F20003F20003F808000808080BC
:1037F0000000203F210000203F20000080808080CA
:103800000000001F202020201F00808000808000FA
:10381000000080FFA12020110E00000000808080A9
:103820008000000E112020A0FF808080800080801A
:10383000800020203F212000010000008080808047
:1038400080000033242424241900008080E080803C
:1038500000000000001F2020000080800000008089
:103860008000001F202020103F20808080000080EA
:10387000808000010E3008060100808000800080FA
:1038800080800F300C030C300F000080800080809F
:1038900080000020312E0E312000808080000080CA
:1038A000808080818E70180601000080808080807A
:1038B00080000021302C2221300000000000807C9C
:1038C000020200000000003F404000000000FF0036
:1038D000000000000000FF0000000002027C8000E9
:1038E00000000040403F000000000006010102020D
:1038F00004040000000000000000000075191A0C0C
:103900006A231B1C1F207274433B4138393A6B6C8D
:10391000376F06246D6E7000680000047600540155
:10392000F7FD0001830000000008000000010018FE
:1039300032000500000020410000D242295C0F3E09
:103940009A99993E3333733F295C0F3E0000000083
:10395000555555555555C53F7D6FEB0312D6D4BF10
:103960005544880E55C1C93F3B8F68B52882A4BF16
:1039700088B20175E0EF493F09F7FD0DE13D023FD7
:103980004B2D8A1C273A03C0C88A599CE52A00405F
:1039900059018D1B6C06E6BF82922EB1C5B8B33FAC
:1039A0004FBB610567ACDD3F182D4454FB21E93F57
:1039B0009BF681D20B73EF3F182D4454FB21F93F46
:1039C000E2652F227F2B7A3C075C143326A6813CCC
:1039D000BDCBF07A8807703C075C143326A6913C77
:1039E000C4EB98999999C9BF711623FEC671BCBFE3
:1039F0006D9A74AFF2B0B3BF9AFDDE522DDEADBF4B
:103A00002F6C6A2C44B4A2BF0D5555555555D53F62
:103A1000FF8300922449C23F6E204CC5CD45B73F7D
:103A2000513DD0A0660DB13FEB0D76244B7BA93FF5
:103A300011DA22E33AAD903F0000000000000000E0
:103A4000603A000800000020043E00006C010008FD
:103A5000144F0008043E00203C070000D00100087D
:103A60006200011008F8484848494E4A06F37800B9
:103A700001400840201807007E220102107E20002D
:103A80001010004042445CC8407F40C0504E44602B
:103A90004020328042100500003F40010250784033
:103AA000100400F8880122FF050211F89F1005009C
:103AB000001F0801227F200004109F80F09F3282A7
:103AC00001000913E2A2928A8682808042000514D6
:103AD0000040807F19000F1200002424A4FEA322BE
:103AE0000022CC0000FF7E2008080601FF00010430
:103AF00001F005FF0202029E5008101010FF109006
:103B000008C3F20840000F150444827F0180804002
:103B1000432C10284681A0011B01400B70F0F0E0FF
:103B2000C0D0103030F0012019F8F8FCFC7D3DB910
:103B300093D7C7D78F8F1F3FFFFFFFFEFEFCFCF818
:103B4000F827D51C3004C0E0E031213331011004E6
:103B50007C7C3C01223801423001C56C500B1C3C7E
:103B600078F8F0E0E0C0C08001114412F862201340
:103B7000FF3F3FFEFE7CF9F7F7F7C38101080C1EFB
:103B80001E7F0120093FBFBFBE9EC0C7F121300B81
:103B9000FF0F070F1F3F7FFCF8E07A600AE0F8FC98
:103BA0007E3F0F0F9FFF010005231F070301EF73E7
:103BB000033F3320050F07F1F07C17FFFFD8100EED
:103BC000F8F7FCE00001010307070E1CF0653279ED
:103BD0008240099F9FCFE7F3F9FF3F5D1007C0C008
:103BE000E0F1F9F9F050080307030080F0F87D04D4
:103BF000042A7F0F01716181199C31092008E0C0FE
:103C000001071C387F141004FCF0E08B43180F29C7
:103C10001330FC5C24041F0F036A1005F0F8FCFE4F
:103C20000D20040701F371400580E0F0FE7B3405B0
:103C30003F87E3F07E227C01257E0405133C1C1C9B
:103C40001CE910048080C0C111012404F0373FD763
:103C50001407F8E080030307551178159627C081F3
:103C600062211846F0E822C07F210812E06C150C92
:103C7000041C190FC1E0709CC77737B99CDEDFE7E1
:103C8000E7F3F3F17534B6F6F3FBFB3B19017B194F
:103C90002521A176FEA6612C117C200D0F1F1E1C74
:103CA0003C7C70717337070F01100CCFCECCCCC8A1
:103CB000C9C3879F9FFE922805C0C1C3C1291406AE
:103CC0008FCFCF47437B1813E3E3E1C0C1ECE6E3BA
:103CD000E3E3FBFBFBF9FDFC7E3E02051EF603134E
:103CE0000CFF01396015E0110110047F7F3E0119BE
:103CF000991007F8F0E3C3830701119A4207911066
:103D00000C0F1F1F9FDFFFFDFDFCFC3E2B421F0120
:103D1000230F0F230528F33201506101113A0514D6
:103D20002F120174161F8E2D6E03410147FEFEE512
:103D3000000547FF1F0300012D7A0339085DEE03DC
:103D400092FC0172FE01A1162DFD032DFF031D281B
:103D500004000534E0E08080772D570471D005130E
:103D60008D723F011575110115F7110112E70180E0
:103D70000667737333B3010C052FB2E6ECC0E90498
:103D800003107F7F7830173F0F87F3FBF9F8FC1C97
:103D90000EEEEEE6E6F7F777773737B3BB016C0444
:103DA0003337775B043EF8E7030412319F0F07C7F0
:103DB0007B7BDBCBFB6B7B8787EFFFFFC0092DC1D4
:103DC000049187A0040100F88F5011F7F0E0E6EFAE
:103DD000EFEFEDE9E9EFECEFEFE6E0174C05F3E389
:103DE000870F3104359EA1C11D25030D31F0051B40
:103DF0000103671969123F910222FF015C0A8FBE1D
:103E00009CD9C3C3DFEFF7F004A1C40940902D1E75
:103E1000032D680307123F3FA37007FFDF8F8F8FCB
:103E20009F0164088FCFC7E3E0F0FCC000044C1F83
:103E30000F0001118D3D8403051E144007DFDFC70D
:103E4000C3C3C0013DC7060D4096033EC028050010
:103E500006357C7E3E3E1F012F3E7EB7034DA907EF
:103E600009199E5C091CFCEC0C1818303087074DB2
:103E70001204021E809D41526D3C04200670707039
:103E80003030051C093818180C0C0C0606340511C6
:103E9000011EC3A2060D1F0A045C05E0F7FF3F7B6D
:103EA00008200460C181381D760720060307870EAD
:103EB0000C971D3C083E70690811742C0870381866
:103EC0000C04060231052101312A1E019706AD823C
:103ED00008137030815E0606060C0420FFFB787F15
:103EE0000774041F7FFF207C0E7040818386060CC0
:103EF0000818102061FFDD091D0508DC040607070E
:103F0000A505711F40111F80C040203030282C268D
:103F1000626140406020011D63040C04107CCEC728
:103F2000A8056C04F8F8980B0931012D1B091C0435
:103F300019191B46066DEC0913C181DB1DFB09161F
:103F400002413306048CC76040C11581100C4060EB
:103F50003F30784844C6C2C3810D2DEC0A326075EB
:103F6000511D1630070D1402091DD10834090F0E1A
:103F70001C3C38707060F12300006C1C04020206C7
:103F8000720A1DF90A100A18101031B3F6D47C78A1
:103F9000201D810B7A8012200FC14346640000204F
:103FA00000800C06232121E611203AC00022C0F532
:103FB00043A0A07F1808030302060E1C1C51291100
:103FC00012606509194C3DEA033C041F1E3E250A98
:103FD000112FB0087070F2E3E1E1C1EEDD1F079030
:103FE000050107DC7020700803060C18212101016F
:103FF0004203CB420CCB4DB30B1C0881C1C1C1C3E2
:1040000043635306AF1F1FF70631BC3D01092DB4B2
:104010000A1F7C7E41083DCE0729825808070F3CC5
:1040200078F0F0C0E581701F780C9D0C23FF807143
:1040300025CD1688323101B2380131139C081C0C91
:104040000C0E0E0E07E3088DEA08AD000839D00DFE
:10405000142A0829E45D10031D870A2E1C0C033D59
:104060002C0B3287BE2F808178060D4DF3041C0483
:1040700000E030C2032A0C780C041C1020E03B083E
:104080001004406018E303420CF0772D530445E11F
:104090009F1ED0A7071D5C031C04101008100D1CE8
:1040A000050282621C9B0419EB4C092010080C0CC1
:1040B000040200E4030C053B80601C0701095C0559
:1040C0003C3E7EBC18033A10D668068003021C30C2
:1040D000B62C04010E30A50E6C08C03C03C1700C58
:1040E00002AC0A2DF2031A10631D8F041D230C8EDF
:1040F000C7E80E31A10D2F0C084E017F033D81034F
:104100001DE10D2C0E71FBDCF8F801030E081830D0
:1041100020607C0B3C06E00F01E03C4C0460068014
:104120006020180487250E150D1C060F051C1C7831
:10413000A20C420819040D39402020100D03010281
:10414000040830C0172F030F740B1D1F04880801CB
:1041500002030020FFF50B1310186A7E02B90B2131
:104160008580053018472001250304073CA0201056
:104170000C02039A2D26033E08BE062D8305280453
:1041800007EE8C942101420007461081FD02103D8C
:104190003E0B033B061CFF8DA3042DFE0727FEF8F4
:1041A000873F0F38F304C1A56E06461015721C0533
:1041B000F8081020AB06340401020C7B0F46F01FF8
:1041C00086088F1F3F48073E0116061C0408181E6C
:1041D000A30F1D80032E0602051109150B6203882B
:1041E00019450C063F2364180E0392030914412E4F
:1041F000E0E20F1D1F0D0C0443E08080ED08011369
:10420000635DD40A3D6C0C3C04F8FCC41F033E04FF
:10421000AB064DED059D11060250FE803D810B332E
:10422000F7FB013D670FADC0056E0283086D0B08FB
:104230000148F72C09380602021CE000F8F20F1FB3
:10424000077FEE0F1DC8108DAB102C058382C26056
:10425000DB07DDF71101488019E22C0760D04031FF
:10426000111056113C091C132B424E025E7C5E0855
:104270001DDB092A38649101100E020A1A121292EB
:104280009292939390B0A0011E00AD040D428E0651
:104290003C0501010205C2072E0062050C0419004D
:1042A00014DCBD09AF1EF02D0708065006FC010303
:1042B000F80C0D1B9C031C040F38E070091DA506AB
:1042C0001C05884C66137A0A0D500C030F1D077CE1
:1042D000C8050C0626071EE2810180106F3C7E3463
:1042E0000E2F8F8FBA101DDB104C0487C7E6FE0F10
:1042F00003633000013DE30D2DDB103E7F49141CAC
:1043000006FCFFBFBFBF7512AFE1C0780C2EF87678
:104310001000055DF0E0C0808C4D5D093D70124DD0
:10432000070F2C053E3E7E7E3D137EFD570F31A6C6
:104330004EF8F0108EE0E50D5D160A2E3E1F112D91
:1043400030130D1EF80D0D322B111C0D018387CF7C
:10435000DFFFFFFDF9F3F7E70D104D9E144C04FD50
:104360003D3FB01211124C0BEFEF4F5FDFDFDF9FCD
:104370009D9DF50D11BFA101421E011DA41225EB4B
:104380000D2211062D790E1D7A0E2005787C3C3EFB
:10439000371C070707E3E3F3F95E13DC06BC1C1CBC
:1043A0000D0D040D1F12145C142E26B90C1C0401F3
:1043B00081817B0B2F06067B0B2C040C28681D16B5
:1043C0000D2DF10E5D17144D4C108FFD9CE20B4D21
:1043D000050B39A91D84131D520B11D015A32D0DEA
:1043E000103FC78744132177220D1C3DB90A1DA435
:1043F000042D240E0D2EEF083D4E0E3D0E0E5D6475
:1044000013051F9B3E1DA4105E7E630F6EE0140F0C
:104410000D3E71082D1C031D86146E7E771509262E
:10442000C58523171E1E973D77173E78540D7AE0F9
:10443000B80D26980A1D50162E789A170120822D45
:10444000A610032278782A0D2C7E071D63152DEE09
:1044500016137F78884D6F080210080110048888B1
:104460004F010C084D4C8C8C0D0F1FFFFE071C04D8
:10447000FFFF83A0182E143B171D670D0E117F73CD
:10448000151F1EE1B01821220C044A80E13E850769
:104490002D12183D5E161A1EED1E0E4C118D0308CE
:1044A0002D6D0EC608F96D8708014A80700500035E
:1044B0000C100100041A9070100123F0D0250F5148
:1044C0001804F9062FC070DF0A0C05150100FCFC6A
:1044D0009A0731190C0650030F1E30E0850A7F0839
:1044E0000E3F110D17D71481190C045803070C3017
:1044F00007012180017D083D44182D49111DDA195D
:104500006DC6170E21707C0F1DA7047E7C5C070D05
:104510002040058DAA182EF8A1063F3C3CE0061F5E
:104520000F0F1416138F87014C0683C3C3C1E18795
:104530001B0F28CFC764074E8FFE173DEF1A3DCDE6
:104540000561013D39053E80E4041DAE181C047E62
:104550003F1F85183007E7E3F3F179787B2E8F93BF
:104560001812C7013C11C3C3E3E363636161713196
:104570003919181C1C1F3D0C0E27E080194D061818
:104580004D8E133D8F1C1F878397081C04E0793DD7
:104590007E072D181C2D0A1C2D98181C13FEEFF7F2
:1045A0007733393918189C9E8ECECEC7C7E7E7FC03
:1045B0001A2C05F1F17171E6052D4B143DEF1B6CC2
:1045C000043E3EBF0F180E1B7CF9101C043878F80F
:1045D0004B121DE21A2D76101C0701230347878F0B
:1045E000811B1C073C3C797367CF7B091EE3EA18EB
:1045F0002C06F0800FFFF3911D33DFDFE91008CFA9
:10460000CECECEC6C7C7771DA71311014D3D134DA2
:10461000261E2DA70D1E7CB0163D181B2D70080DF3
:1046200025811DADBA135D18132E0FBC081C073D64
:104630003D1B6777F3031E1C05EFEFDFDF220A2423
:1046400014BF3F7F7DFBE3E3E7C78737377773739B
:10465000E3A3A363746004616160012C04E1C3837C
:10466000B01B2F1E3EA01E0D463B0A5E0120191CEA
:104670000E1F1FDFFEF0F0F1E7CF9F3F3F7EF206F7
:1046800013F3F39C12F6011408E6ECE8D8D8D8DC52
:104690001A1C08CECECFEFEEEEEE76171D340E1DAF
:1046A000C01A0E4B1F64034E0E151925D9919C316B
:1046B0001116EF891AE1092DAF18110F0C061AE334
:1046C000C1C0C0F082091F80F053136D490F011261
:1046D000013D80167F020293122DD4110D496914F9
:1046E0003E03ED128DCA172DE7144E023E0A3E041A
:1046F0007C143D56151D7B067C05B0B0A0E057121A
:104700007C062123263C38651235F62D6A123DD9E8
:10471000084D76130D417B192C0480C06067181D6D
:10472000C3189D97150D160911A9C321C02C051C8E
:1047300039F1C1981811CB4E0443151DA3110E2A4F
:10474000600F140C04111F7FE13017BD03171D53B8
:10475000172DCF090D12BA212F70700E07EE789821
:10476000212D1A0F0C04211C38F0250720110404F8
:1047700044446527270216161E8A9ADA5A7EBF5EBF
:1047800040EE0C0D24CC045DC30AF0049EB8F0C8C2
:104790000C0424031FFE2A163C08C0C0626331319A
:1047A0003058082DF213481130302061C1F5FF7FD9
:1047B000F343E3E20282C686293C0C04CC8C9CFCC9
:1047C000ECFC7CFCFCACE6201C131E1C7DDDB7372A
:1047D000372F7F7762E3C387050909034621BE703F
:1047E0007F180E2303A01C1DF31B6B38604E3D2861
:1047F000182C06E0FCBF878173171E831B182E063A
:10480000DA041D8F142006838787808116BC0681F9
:10481000838FBEF86D037C078081C3FF7E18EE1F77
:104820003D511A2E30171A0D2311141C043C7E66BC
:10483000DA041C0679797D7F4FD0063C05C1F179F9
:10484000F15A1C2C04F87961C8181FC3669E0E2308
:104850006EC61A1C05F9F9C1C1DC183005D1F97111
:10486000C11A0C0E69E7FFFBFB7B7343C3C34767A9
:104870007D38FD073DB2230B233E04231E07BF0DE9
:104880004C043E7C7C44208D6C0762E001BEC04637
:104890001D0920761C04C0F0FED7190C072C07C395
:1048A000E0F8FE7FFF1D4DF90F1DA61C121301B08D
:1048B0000733634747C7CF0118058F8F8E88B43DF4
:1048C00071057EFE4A1D4D17155DF7061C067878AA
:1048D000797979C124E00AC6CFC7C3D9CCCECFE756
:1048E000C6BD29100D240C071D5F142F0606CA0E25
:1048F000BC0A191919393332306041961F6EFE19FE
:10490000151F8F83F91B2C09C0CC8E0E00707838D0
:104910002E0C4DE30F4D521A0111012D280F0E38A8
:104920000404076DE41F1D441B40058783E3F30166
:104930000F2F7313680F0D340B1F1C07C08010312D
:1049400073E3D8065404C4C4CEA01D86080F62E0E9
:1049500060DC0A1D96241C040F07C155251C04F8B1
:10496000190173031EF99B0932F9070C0912F9F8B2
:1049700080000E1E3E7886280D5033131D83162EA0
:104980001875241D1A162DA2251F3F303F222DEE2B
:10499000110F313830DB0E0D1AE0213EF3F82503FC
:1049A000387FFF012DFB0803350F0F421D6A0F2DC5
:1049B000CE278C05FCF8F103221D1D050E7DA913E1
:1049C0000C04141F1F7F33241176BE07F41E1DC56F
:1049D0001D012D851E7F5C274EF865251EFDFE1AE4
:1049E0000D1522293C044041C7A3284E3F2B1E0D24
:1049F00016BE1D1E801228022CFC80D5A22D8627F3
:104A00000D2FDB241D3B221EE0A219071BFCFEA27A
:104A10000D116C254C051F9F8783F4221D010C1D71
:104A200009159F373766190D14EB2A4DA0071DFF96
:104A30001E1D780C1DFC0B3F3F0E262745A64D740E
:104A4000141E03940D8BE3F35E1EEFB40C2D370C94
:104A50003FE1E939298D67269DC5243D4D153C056B
:104A60000A1A1A30BA127D2A267FFAF0DE1B0D23AD
:104A7000C92A3C066060F8F800D3270A33BF8B2EA2
:104A8000FE990E5C07E1E3E3C7C78F7B0B4E60A284
:104A90002952FEA40D16DA202D0E0F6EF0042B0005
:104AA0000442FEFEFF012D64161D6316F2C0177D41
:104AB0008D2B3FE0C0AC2B013970C27F01012C333C
:104AC0000135722D2A040F180303312A7DDB141DD2
:104AD0007C291E3F540D49550117325D26042D25B2
:104AE000040D1FB5250E238734199D93181D6408E6
:104AF0000C04277EFEF8D9160B1E01076219EB0E77
:104B000010E0960B9260011A7CC02FFFFC052C3F31
:104B1000C0F0582C1C04010F3FA92B1E009810A1B7
:104B2000270F126060652B09285D39D00D168111A1
:104B30001E01142C6C057CFE7F0F86141C04013FA3
:104B4000FF0B110E1207C3173D29110A3BFCF20E91
:104B500027FE50174D74120E1AF04A2A0D4479039D
:104B60002EFC122F4D1D272D5D053D252B01587163
:104B70000188012D3C05ED272B9C0A7F1FCFEFF705
:104B8000F3FBF3034C063D142F000749FDFDFDF137
:104B9000037F7E2F1F01CA134009FEFEFDFBE7CFF6
:104BA000DFBF894C04011C3EED074E1F09059C0523
:104BB000DFC733F9032B03471EC0FA3C099F9F80D0
:104BC000C0CFCFEFEF052011DC1D90184EFD0F2D4B
:104BD0006D750522FC162C05FDF8FBF79E132C07BE
:104BE000FBF3F3E5EECEA812063B7F6F2DC90B6FEA
:104BF0000381BB031E8F5C143D10130E2A1F2A066F
:104C00001D2D1C04052DE7EFDF3F6FAC060F0138AB
:104C10007C7C512C1D561C2C0C1F1C9D9C9CDE5E0C
:104C20005E5E5F5F651C81010D223F0708071EFC69
:104C3000F9F3CF9F7F611E9FCA0B2C04E7F7F30C9B
:104C4000082EF8570B2FF1F3E22D3C05CFCF9F9F95
:104C5000EC121DE006157C1DE02F1D6A131008EEF6
:104C6000EEDEDE9EBEBE120D28C4070C0511FCF15F
:104C7000E38FBF2B1C047F1F8FC8151C09F984B25A
:104C8000BBBB9BCBE34A1C2EBF451DDD590A2DE75C
:104C9000071EF96F2D0D3C0D0B3DD30412F9868DC7
:104CA000C42C0F10C3F99B0519E81D11096D622D65
:104CB0007C06A7B7377707F80D0F42F0F041080ED2
:104CC0002FF0A12D3E20C3293D15307DA0091C06E3
:104CD000FCFCCCCCE47D060E542049187F78FE768F
:104CE000302D04031D69321E7E110C1DA32036E7F2
:104CF000B66E1F840E6C041E0C04B83041019D4535
:104D0000100D2C891D5DF01E1DCC0F3E382B335E1F
:104D10000EC20A4D99293D971E6C047C3E1FCE168B
:104D20000C0822030387C7F7F0F8E3060F1BFEFC0D
:104D30002B081DB3332DC333323F5B0D1301321DDE
:104D400077121500DD7C240D20D5075C06EFFFDF10
:104D5000FF9F30053D4F070D14481E4D76340E1F42
:104D6000E198344DE90A4D26326D66340D2353081F
:104D70008EC000090D1768131DCA0E4EFEEF0B0EF4
:104D800015800B1F4D96217E1F4F0CAE03A616AE4D
:104D9000031A051DBB34BD9A0A280487E0FC2A0CBF
:104DA00004200F07018E332D872C1E1EFB184DA7E4
:104DB000360E252058101DE60B1F787E11112D0888
:104DC0000E1E0183358DD30A2DB21D0D611B116D91
:104DD00013382E18051B0C05200F070703D20A0EE7
:104DE000111FD90B4FFEF8E92C7D6A2165762D84C1
:104DF00031DE7F9D09CDDF093D3B0E759E5DAC0F19
:104E00006E0119200E10FED7330D11D6215D7D23C2
:104E10002D0B386D761BDD48319D050C6D000C8D1A
:104E20007F2A6DCA2DAD8B1A8C05381C1E0F0A13F4
:104E3000AD2F2872F801CD7A143D47180C04128367
:104E40008F9F010A9D02353EF8DF38BD8D35DDA10B
:104E5000323C049F8F87582E6D9B049EF0201B0CC4
:104E60000424F8F8F8790E1D000F5D17199DC01382
:104E7000920F019D3E2E5D232E0F2381E1F10B9DAC
:104E80000F140113017163B4050C0C38782B92E0F8
:104E9000018D231D3D0A2A3F783C6224E19D0112C9
:104EA00060F2E001F28001553E9F707C0436011BE8
:104EB00001CC053E7CF0E070150110015D990F0DED
:104EC0002408123E3F4838A18F85D12DDE157D671D
:104ED0000679A45E013A39011F5A8DD5367DD70473
:104EE000953300043743737F0110047E7E7E06F401
:104EF00004776343CC2DCA0351775D39211E384BAB
:104F0000220C041E3900081C2F1224242D542E615B
:044F10000400000099
:0400000508000131BD
:00000001FF
